:100000000C946D000C9495000C9495000C94950044
:100010000C9495000C9495000C9495000C94A602F9
:100020000C9495000C9495000C9495000C949500FC
:100030000C9495000C9495000C9495000C949500EC
:100040000C945A030C9495000C9428030C9402030E
:100050000C9495000C9495000C9495000C949500CC
:100060000C9495000C94950005A84CCDB2D44EB9D3
:100070003836A9020C50B9918688083CA6AAAA2A4B
:10008000BE000000803F00000008000201000003E5
:10009000040700000000000000000200000000252E
:1000A0000028002B0000000000240027002A000484
:1000B000040404040404040202020202020303030F
:1000C0000303030102040810204080010204081009
:1000D00020010204081020009D0711241FBECFEF4D
:1000E000D8E0DEBFCDBF11E0A0E0B1E0E2EFF4E187
:1000F00002C005900D92AA33B107D9F721E0AAE317
:10010000B1E001C01D92AF3FB207E1F710E0CDE6CC
:10011000D0E004C02197FE010E946C0ACC36D107C2
:10012000C9F70E94A4030C94770A0C940000EBEC2E
:10013000F0E02491E7EBF0E08491882399F090E0DF
:10014000880F991FFC01EB55FF4FA591B491FC015D
:10015000E556FF4F859194918FB7F894EC91E22B7F
:10016000EC938FBF089590910001981324C0EAE9A1
:10017000F0E0E4919FEF90930001E130B9F098F046
:10018000E230C9F4909170009D7F9093700091E0EF
:100190009093B0009091B100987F94609093B100DB
:1001A0001092B30008C010926E0005C090916F00CD
:1001B0009D7F90936F0090E0FC01EA57FF4F2491E0
:1001C000FC01ED53FF4F3491FC01E155FF4FE491E9
:1001D000EE23B9F1222339F1233091F038F42130A4
:1001E000A9F0223001F584B58F7D12C0273091F03F
:1001F0002830A1F02430B9F4809180008F7D03C0B5
:10020000809180008F77809380000DC084B58F77B8
:1002100084BD09C08091B0008F7703C08091B00089
:100220008F7D8093B000F0E0EE0FFF1FE556FF4F8B
:10023000A591B4918FB7F894EC9130953E233C93FF
:100240008FBF0895CF92DF92EF92FF920F931F938B
:10025000CF93DF936C017A018B01C0E0D0E0CE1523
:10026000DF0589F0D8016D918D01D601ED91FC91EA
:100270000190F081E02DC6010995892B11F47E01D2
:1002800002C02196ECCFC701DF91CF911F910F9152
:10029000FF90EF90DF90CF900895089580E090E078
:1002A0000895FC01538D448D252F30E0842F90E07C
:1002B000821B930B541710F0CF9608950197089561
:1002C000FC01918D828D981761F0828DDF01A80F5E
:1002D000B11D5D968C91928D9F5F9F73928F90E080
:1002E00008958FEF9FEF0895FC01918D828D9817EF
:1002F00031F0828DE80FF11D858D90E008958FEF2C
:100300009FEF0895FC01918D228D892F90E0805CF4
:100310009F4F821B91098F739927089582E691E080
:100320000E94820121E0892B09F420E0822F0895A8
:10033000FC01848DDF01A80FB11DA35ABF4F2C9182
:10034000848D90E001968F739927848FA689B78951
:100350002C93A089B1898C9180648C93938D848D2A
:10036000981306C00288F389E02D80818F7D8083F9
:100370000895EF92FF920F931F93CF93DF93EC01B9
:1003800081E0888F9B8D8C8D981305C0E889F98951
:10039000808185FD24C0F62E0B8D10E00F5F1F4F6E
:1003A0000F731127E02E8C8DE8120CC00FB607FCDE
:1003B000FACFE889F989808185FFF5CFCE010E94C7
:1003C0009801F1CF8B8DFE01E80FF11DE35AFF4F2D
:1003D000F0820B8FEA89FB898081806207C0EE89F9
:1003E000FF896083E889F98980818064808381E066
:1003F00090E0DF91CF911F910F91FF90EF900895C2
:10040000CF93DF93EC01888D8823C9F0EA89FB89BB
:10041000808185FD05C0A889B9898C9186FD0FC0B2
:100420000FB607FCF5CF808185FFF2CFA889B98987
:100430008C9185FFEDCFCE010E949801E7CFDF912F
:10044000CF91089580E090E0892B29F00E948E01E1
:1004500081110C94000008953FB7F89480913B01FE
:1004600090913C01A0913D01B0913E0126B5A89B21
:1004700005C02F3F19F00196A11DB11D3FBFBA2F36
:10048000A92F982F8827820F911DA11DB11DBC0196
:10049000CD0142E0660F771F881F991F4A95D1F75B
:1004A0000895009769F0FC0101900020E9F7319769
:1004B000AF01481B590BBC0182E691E00C9422016C
:1004C00080E090E008958F929F92AF92BF920F9339
:1004D0001F93CF93DF93CDB7DEB7A1970FB6F894F4
:1004E000DEBF0FBECDBF19A2423008F44AE08E0134
:1004F0000F5D1F4F842E912CA12CB12CA5019401CE
:100500000E942B0AE62FB901CA0101501109EA30F5
:1005100014F4E05D01C0E95CD801EC93232B242B9B
:10052000252B61F7C8010E945102A1960FB6F894DD
:10053000DEBF0FBECDBFDF91CF911F910F91BF9056
:10054000AF909F908F9008950E94720A1F920F9211
:100550000FB60F9211242F933F934F935F936F9396
:100560007F938F939F93AF93BF93EF93FF9380916C
:10057000480190914901A0914A01B0914B01892B0A
:100580008A2B8B2B51F180913F01E0914001F0913A
:100590004101908189278083809148019091490190
:1005A000A0914A01B0914B01181619061A061B06B4
:1005B000C4F48091480190914901A0914A01B09101
:1005C0004B010197A109B10980934801909349011A
:1005D000A0934A01B0934B0104C0809100010E9496
:1005E000B300FF91EF91BF91AF919F918F917F9158
:1005F0006F915F914F913F912F910F900FBE0F9090
:100600001F9018951F920F920FB60F9211242F93DF
:100610003F934F935F936F937F938F939F93AF938A
:10062000BF93EF93FF9382E691E00E949801FF91C0
:10063000EF91BF91AF919F918F917F916F915F915A
:100640004F913F912F910F900FBE0F901F901895D3
:100650001F920F920FB60F9211242F938F939F9397
:10066000EF93FF93E0917201F09173018081E0912B
:100670007801F091790182FD12C0908180917B0117
:100680008F5F8F7320917C01821751F0E0917B0185
:10069000F0E0EE59FE4F958F80937B0101C0808181
:1006A000FF91EF919F918F912F910F900FBE0F901F
:1006B0001F9018951F920F920FB60F9211242F932F
:1006C0003F938F939F93AF93BF93809154019091E9
:1006D0005501A0915601B091570130913A0123E0A4
:1006E000230F2D3720F40196A11DB11D05C026E86A
:1006F000230F0296A11DB11D20933A01809354014E
:1007000090935501A0935601B093570180913B01FE
:1007100090913C01A0913D01B0913E010196A11D37
:10072000B11D80933B0190933C01A0933D01B09398
:100730003E01BF91AF919F918F913F912F910F906B
:100740000FBE0F901F901895CF93DF93CDB7DEB7F4
:1007500029970FB6F894DEBF0FBECDBF789484B54D
:10076000826084BD84B5816084BD85B5826085BDAD
:1007700085B5816085BD80916E00816080936E003B
:10078000109281008091810082608093810080912D
:1007900081008160809381008091800081608093DE
:1007A00080008091B10084608093B1008091B0009E
:1007B00081608093B00080917A00846080937A0099
:1007C00080917A00826080937A0080917A008160C3
:1007D00080937A0080917A00806880937A001092EA
:1007E000C1000E949700E0917201F091730182E0D4
:1007F0008083E0916E01F0916F011082E0917001B1
:10080000F09171018FEC808310927A01E091760172
:10081000F091770186E08083E0917401F091750199
:10082000808180618083E0917401F0917501808105
:1008300088608083E0917401F09175018081806807
:100840008083E0917401F091750180818F7D8083B8
:1008500044244A94542C320180E480937C0080919B
:100860007A00806480937A0080917A0086FDFCCFC4
:10087000609178008091790070E0782B072E000C51
:10088000880B990B0E94740820E030E04AEF5EE389
:100890000E9429094B015C0120E030E048E052E46D
:1008A0000E94240918160CF004C200E010E07BEC52
:1008B000272E70E0372EB801012E000C880B990B03
:1008C0000E94740822EA35EF4EE85CE30E94290991
:1008D0000E94960960935E0170935F0180936001AE
:1008E0009093610120E030E04AEF54E40E9429092E
:1008F0000E943C086B0120E3C21A28EFD20AD09272
:100900005D01C0925C0180910001883029F4EAE920
:10091000F0E0F491F98778C08F3F09F096C188E044
:1009200080930001EAE9F0E084918F3F09F48DC1E2
:10093000813011F1823009F442C0811164C014BCCD
:1009400015BC84B5826084BD85B5816085BDE7EB4B
:10095000F0E08491E82FF0E0EE0FFF1FE556FF4F27
:10096000859194919093470180934601F101849180
:100970008093450119864BC010928000109281002F
:1009800080918100886080938100809181008160E6
:1009900080938100E7EBF0E08491E82FF0E0EE0F28
:1009A000FF1FE556FF4F85919491909344018093EA
:1009B0004301F101849180934201F1E022C0109241
:1009C000B0001092B1008091B00082608093B000BE
:1009D0008091B10081608093B100E7EBF0E08491F9
:1009E000E82FF0E0EE0FFF1FE556FF4F8591949141
:1009F0009093410180934001F101849180933F01E4
:100A0000F2E0F98704C08987298527FD1EC10E946D
:100A10009700E12CF12C89858D7F09F0B0C060E052
:100A200072E18AE790E0A70196010E944D0A2983AE
:100A30003A834B835C83BA01A90141505109610992
:100A400071094F3F51056105710509F008F447C070
:100A500060E472E48FE090E0A70196010E944D0AE5
:100A6000BA01A90141505109610971098985823092
:100A7000E9F44F3F51056105710509F008F45BC2C7
:100A800060E970ED83E090E0A70196010E944D0AB5
:100A9000BA01A90141505109610971094F3F51053E
:100AA0006105710509F0C8F583E062C04F3F51054B
:100AB00061057105B1F0A8F068E478EE81E090E09E
:100AC000A70196010E944D0ABA01A901415051099E
:100AD000610971099985992309F4D9C124C281E07A
:100AE00001C082E0F985FF2399F042C089819A8193
:100AF000AB81BC812AE0B595A795979587952A95F6
:100B0000D1F7AC01BD01415051096109710985E07E
:100B100095B5987F892B85BD68C068E478EE81E043
:100B200090E0A70196010E944D0ABA01A901415027
:100B30005109610971094F3F51056105710509F0BE
:100B400008F4A3C164E274EF80E090E0A70196018D
:100B50000E944D0ABA01A901415051096109710968
:100B60004F3F51056105710511F008F0AFC185E0F7
:100B70009091B100987F892B8093B1002FC060E0E5
:100B800072E18AE790E0A70196010E944D0ABA013E
:100B9000A90141505109610971094115510521E02F
:100BA0006207710580F068E478EE81E090E0A701CB
:100BB00096010E944D0ABA01A901415051096109EB
:100BC000710993E001C091E08985813039F4809109
:100BD0008100887F892B8093810016C09985913090
:100BE00099F0923019F1911130C047BD40925001F7
:100BF00050925101609252017092530180916E00A7
:100C0000826080936E0021C05093890040938800D9
:100C100040924C0150924D0160924E0170924F01F2
:100C200080916F00826080936F000FC04093B3008B
:100C3000409248015092490160924A0170924B01E2
:100C4000809170008260809370000E942C026B0182
:100C50007C0122E030E040E050E02D833E834F8372
:100C600058870E942C02DC01CB018C199D09AE092A
:100C7000BF092D813E814F815885883E9340A10553
:100C8000B10558F3E8EECE0EE3E0DE1EE11CF11CE8
:100C9000213031054105510529F021E030E040E0E7
:100CA00050E0DBCF0F5F1F4F043B110509F003CE6F
:100CB00003C088E00E94B3002FB7F89480915401DC
:100CC00090915501A0915601B09157012FBF4091CD
:100CD00058015091590160915A0170915B01841B38
:100CE000950BA60BB70B853F9140A105B10508F404
:100CF000C9C02FB7F8948091540190915501A091EB
:100D00005601B09157012FBF80935801909359011C
:100D1000A0935A01B0935B0183E191E00E945102DC
:100D2000A5019401C501B4010E949E09882319F010
:100D300089E291E01AC075016401E894F7F82FEF99
:100D40003FEF4FE75FE7C701B6010E949E0981119F
:100D50000FC02FEF3FEF4FE75FE7C701B6010E94DB
:100D6000370818162CF48DE291E00E94510282C0DF
:100D70002FEF3FEF4FE75FE4C501B4010E94240964
:100D800018161CF481E391E0F0CF2FEF3FEF4FE70F
:100D90005FECC501B4010E94370887FDF3CF20E066
:100DA00030E0A901C501B4010E94370887FF0FC0D8
:100DB000E0916201F09163010190F081E02D6DE21C
:100DC00082E691E00995B7FAB094B7F8B0942AE0BA
:100DD00037ED43EA5BE3C501B4010E94CB074B0149
:100DE0005C010E9443086B017C010E9472089B0118
:100DF000AC01C501B4010E94CA074B015C014AE085
:100E0000C701B6010E946302E0916201F0916301A3
:100E10000190F081E02D6EE282E691E0099520E0FC
:100E200030E040E251E4C501B4010E9429096B01A0
:100E30007C010E9443084B01A12CB12C4AE0C50162
:100E4000B4010E946302C501B4010E9472089B01B3
:100E5000AC01C701B6010E94CA0720E030E040E2C1
:100E600051E40E9429090E94430880E090E04AE092
:100E70000E94630285E391E00E94510287E391E0C2
:100E80000E9451020E942202E7CC84E071CE4F3FC3
:100E9000510561057105C1F0B8F062E17AE780E0C3
:100EA00090E0A70196010E944D0ABA01A9014150A4
:100EB0005109610971094F3F51056105710511F033
:100EC00008F014CE84E024CE83E022CE62E17AE7FB
:100ED00080E090E0A70196010E944D0ABA01A901A5
:100EE00041505109610971094F3F51056105710573
:100EF000C1F0B8F089819A81AB81BC813AE0B595A7
:100F0000A795979587953A95D1F7AC01BD014150CA
:100F1000510961097109E985EE2309F4F8CD87E0EB
:100F200027CE86E0DFCD4F3F51056105710509F001
:100F300068F684E0D7CD82E01BCEE2E6F1E01382D2
:100F4000128288EE93E0A0E0B0E084839583A683CC
:100F5000B78385E091E09183808385EC90E095876D
:100F6000848784EC90E09787868780EC90E0918B73
:100F7000808B81EC90E0938B828B82EC90E0958B60
:100F8000848B86EC90E0978B868B118E128E138E5D
:100F9000148E08955058BB27AA270E94E2070C948C
:100FA000EA080E94DC0838F00E94E30820F039F4D7
:100FB0009F3F19F426F40C94D9080EF4E095E7FB52
:100FC0000C94D308E92F0E94FB0858F3BA17620764
:100FD00073078407950720F079F4A6F50C941D0992
:100FE0000EF4E0950B2EBA2FA02D0B01B901900144
:100FF0000C01CA01A0011124FF27591B99F0593F88
:1010000050F4503E68F11A16F040A22F232F342FCF
:101010004427585FF3CF469537952795A795F0401D
:101020005395C9F77EF41F16BA0B620B730B840B32
:10103000BAF09150A1F0FF0FBB1F661F771F881FEA
:10104000C2F70EC0BA0F621F731F841F48F4879542
:1010500077956795B795F7959E3F08F0B0CF939534
:10106000880F08F09927EE0F9795879508950E94AD
:10107000AF0808F481E008950E9443086894B11114
:101080000C941E0908950E94030988F09F5798F058
:10109000B92F9927B751B0F0E1F0660F771F881F7D
:1010A000991F1AF0BA95C9F714C0B13091F00E9497
:1010B0001D09B1E008950C941D09672F782F88272A
:1010C000B85F39F0B93FCCF3869577956795B395BE
:1010D000D9F73EF490958095709561957F4F8F4F2D
:1010E0009F4F0895E89409C097FB3EF49095809532
:1010F000709561957F4F8F4F9F4F9923A9F0F92FDE
:1011000096E9BB279395F695879577956795B7955B
:10111000F111F8CFFAF4BB0F11F460FF1BC06F5F41
:101120007F4F8F4F9F4F16C0882311F096E911C053
:10113000772321F09EE8872F762F05C0662371F074
:1011400096E8862F70E060E02AF09A95660F771F88
:10115000881FDAF7880F9695879597F90895990F64
:101160000008550FAA0BE0E8FEEF16161706E80771
:10117000F907C0F012161306E407F50798F0621B92
:10118000730B840B950B39F40A2661F0232B242B67
:10119000252B21F408950A2609F4A140A6958FEF86
:1011A000811D811D089597F99F6780E870E060E0D8
:1011B00008959FEF80EC089500240A9416161706F0
:1011C00018060906089500240A9412161306140638
:1011D00005060895092E0394000C11F4882352F09B
:1011E000BB0F40F4BF2B11F460FF04C06F5F7F4F53
:1011F0008F4F9F4F089557FD9058440F551F59F03A
:101200005F3F71F04795880F97FB991F61F09F3FF3
:1012100079F087950895121613061406551FF2CF1C
:101220004695F1DF08C0161617061806991FF1CF6C
:1012300086957105610508940895E894BB27662793
:101240007727CB0197F908950E94AF0808F48FEF34
:1012500008950E943C090C94EA080E94DC0838F0CA
:101260000E94E30820F0952311F00C94D3080C940D
:10127000D90811240C941E090E94FB0870F3959F55
:10128000C1F3950F50E0551F629FF001729FBB277D
:10129000F00DB11D639FAA27F00DB11DAA1F649F19
:1012A0006627B00DA11D661F829F2227B00DA11DCC
:1012B000621F739FB00DA11D621F839FA00D611D52
:1012C000221F749F3327A00D611D231F849F600D73
:1012D000211D822F762F6A2F11249F5750409AF09C
:1012E000F1F088234AF0EE0FFF1FBB1F661F771F28
:1012F000881F91505040A9F79E3F510580F00C94F3
:10130000D3080C941E095F3FE4F3983ED4F386950E
:1013100077956795B795F795E7959F5FC1F7FE2B92
:10132000880F911D9695879597F908959F930E9430
:10133000A5090F9007FCEE5F0C94CE090E94AF0840
:10134000880B990B08950C94D9080E940309D8F3CF
:10135000E894E0E0BB279F57F0F02AED3FE049EC2E
:1013600006C0EE0FBB0F661F771F881F28F0B23A2A
:1013700062077307840728F0B25A620B730B840B61
:10138000E3959A9572F7803830F49A95BB0F661FF3
:10139000771F881FD2F790480C94E409EF93E0FF81
:1013A00007C0A2EA2AED3FE049EC5FEB0E94E207AA
:1013B0000E94EA080F90039401FC9058E8E6F0E0E0
:1013C0000C94F0099F3F31F0915020F48795779568
:1013D0006795B795880F911D9695879597F908950C
:1013E0009F938F937F936F93FF93EF939B01AC0138
:1013F0000E942909EF91FF910E94040A2F913F91C9
:101400004F915F910C942909DF93CF931F930F9312
:10141000FF92EF92DF927B018C01689406C0DA2E76
:10142000EF010E943C09FE01E894A59125913591B8
:1014300045915591A6F3EF010E94E207FE01970145
:10144000A801DA9469F7DF90EF90FF900F911F9158
:10145000CF91DF910895A1E21A2EAA1BBB1BFD01BB
:101460000DC0AA1FBB1FEE1FFF1FA217B307E40783
:10147000F50720F0A21BB30BE40BF50B661F771FDB
:10148000881F991F1A9469F76095709580959095BB
:101490009B01AC01BD01CF010895052E97FB1EF401
:1014A00000940E94640A57FD07D00E942B0A07FC93
:1014B00003D04EF40C94640A5095409530952195D4
:1014C0003F4F4F4F5F4F0895909580957095619570
:1014D0007F4F8F4F9F4F0895EE0FFF1F0590F491A0
:1014E000E02D099481E090E0F8940C94770AF89448
:0214F000FFCF2C
:1014F200FF00000000B901220151010002820160D7
:10150200017401E78EB0E59CA8E79A84E6B8A9E5E4
:10151200BAA6E698AFEFBC9A006E616E00696E667D
:0A152200006F76660043000D0A001A
:00000001FF
